:020000040800F2
:1000000098090024AD020008DB3F0008D13E00083B
:10001000D93F0008F50300081D4E0008000000004D
:10002000000000000000000000000000EF41000898
:100030008909000800000000DD3F0008F1410008C8
:10004000C7020008C7020008C7020008C70200086C
:10005000C7020008C7020008C7020008C70200085C
:10006000C7020008C7020008C7020008F70300081B
:1000700003040008C7020008C7020008C7020008FE
:10008000C7020008C7020008C7020008C70200082C
:10009000C7020008C7020008C7020008C70200081C
:1000A000C7020008C7020008C7020008C70200080C
:1000B000C7020008C7020008C7020008C7020008FC
:1000C000C7020008C7020008C7020008C7020008EC
:1000D000C7020008034E0008C7020008C702000854
:1000E000C7020008C702000800000000C70200089D
:1000F000C7020008C7020008C7020008C7020008BC
:10010000C7020008C7020008C7020008C7020008AB
:10011000C7020008C7020008C7020008C70200089B
:10012000C7020008C7020008C7020008C70200088B
:10013000C7020008C7020008C7020008C70200087B
:1001400000000000000000000000000000000000AF
:10015000C7020008C7020008C7020008C70200085B
:10016000C7020008C7020008C7020008C70200084B
:10017000C7020008C7020008C7020008000000000C
:10018000C7020008C7020008C7020008C70200082B
:10019000C7020008C7020008C7020008C70200081B
:1001A000C7020008C7020008C7020008C70200080B
:1001B000C7020008C7020008C7020008C7020008FB
:1001C000C7020008C7020008C7020008C7020008EB
:1001D000C7020008C7020008C7020008C7020008DB
:1001E000C7020008C7020008C7020008C7020008CB
:1001F000C7020008C7020008C7020008C7020008BB
:10020000C7020008C7020008C7020008C7020008AA
:10021000C7020008C7020008C7020008C70200089A
:10022000C7020008C7020008C7020008000000005B
:10023000C7020008C702000800000000C70200084B
:10024000C7020008C7020008C7020008C70200086A
:10025000C7020008C7020008C7020008C70200085A
:10026000C7020008C7020008C7020008C70200084A
:10027000C7020008C7020008C7020008000000000B
:10028000C7020008C7020008C702000800000000FB
:1002900000000000C7020008DFF80CD000F07AF878
:1002A00000480047694E0008980900240648804726
:1002B00006480047FEE7FEE7FEE7FEE7FEE7FEE74B
:1002C000FEE7FEE7FEE7FEE7B142000899020008FC
:1002D0002DE9F05F0546002092469B46884606467B
:1002E000814640241BE0284641464746224600F00E
:1002F00041F853465A46C01A914110D31146184648
:10030000224600F028F82D1A67EB01084F462246D6
:100310000120002100F01FF817EB00094E41201EBC
:10032000A4F10104DFDC484631462A464346BDE8D5
:10033000F09FD2B201E000F8012B491EFBD27047BA
:100340000022F6E710B513460A4604461946FFF7A1
:10035000F0FF204610BD202A04DB203A00FA02F10B
:10036000002070479140C2F1200320FA03F31943A3
:1003700090407047202A04DB203A21FA02F0002145
:10038000704721FA02F3D040C2F1200291400843A5
:1003900019467047064C074D06E0E06840F001033F
:1003A00094E8070098471034AC42F6D3FFF778FF83
:1003B0009C4F0008BC4F000830B58C1810F8012B7A
:1003C00012F00F0301D110F8013B120906D110F809
:1003D000012B03E010F8015B01F8015B5B1EF9D112
:1003E00001E001F8013B521EFBD1A142E6D30020FF
:1003F00030BD0000FEE740F21840C2F2004000F0BD
:10040000E7BE40F29040C2F2004000F0E1BE0000C2
:1004100040F20F42D0F800C0C4F20202944510DC52
:100420006F22C4F20202944520DC3F22C4F2020291
:10043000944536DC1022C4F20202944554D028229E
:100440004EE040F26F42C4F2020294451ADC40F2E0
:100450003F42C4F2020294452ADC40F21042C4F248
:100460000202944540D040F2284239E09F22C4F273
:100470000202944525DC7022C4F20202944533D076
:1004800088222DE040F29F42C4F2020294451FDC14
:1004900040F27042C4F20202944525D040F28842F4
:1004A0001EE04022C4F2020294451DD0582217E0FB
:1004B00040F24042C4F20202944515D040F2584244
:1004C0000EE0A022C4F2020294450DD0B82207E04B
:1004D00040F2B842C4F20202944505D040F2A04274
:1004E000C4F20202944518D16FF00F024AF6AB2312
:1004F00052FA8CF2CAF6AA23A2FB033108A35F2AA0
:10050000C1F302115B5C40F2FF312CEA0101C365CB
:1005100088BF04318165084670472CF0FF01F9E778
:100520000006101600061016B0B545F243410268E9
:10053000C5F602018A4245F60001C5F602010EDD4C
:1005400045F26B43C5F602039A4217DC45F2444379
:10055000C5F602039A421DD045F2584316E045F213
:100560000843C5F602039A4214D045F21C43C5F66F
:1005700002039A420ED045F2304307E045F2804331
:10058000C5F602039A4205D045F26C43C5F6020354
:100590009A4216D1D3B2A3F108024CF6CD43CCF661
:1005A000CC43A2FB03231B0901F1800201EB830171
:1005B00003F01F030125016605FA03F1C0E91921C3
:1005C000B0BDA1F55B739A42D3B2E4D0A3F11001A0
:1005D0004AF6AB23CAF6AA230825A1FB031C40F266
:1005E0000F4340F60001C4F202034FEA1C1E03F160
:1005F000AA049A427346C4F2020188BF05EB1C1399
:10060000A24228BF7346CFE701790139072988BF85
:10061000704745F243430268C5F602039A420EDD75
:1006200045F26B43C5F602039A4217DC45F2444398
:10063000C5F602039A421DD045F2584316E045F232
:100640000843C5F602039A4214D045F21C43C5F68E
:1006500002039A420ED045F2304307E045F2804350
:10066000C5F602039A4205D045F26C43C5F6020373
:100670009A420ED18A0045F60013C5F602034FF0E8
:10068000010C1A4440330CFA01F1C266C0E91C3176
:10069000704745F29443C5F602039A424FEA81023D
:1006A000E9D040F60013C4F20203E8E7F0B540F2E7
:1006B0006F44D0F800C0C4F20204D0F858E0A4455A
:1006C00017DC9F25C4F20205AC452DDC5725C4F28A
:1006D0000205AC4550DC1025C4F20205AC4500F023
:1006E0008A802825C4F20205AC4500F084804025AC
:1006F0006BE045F22F45C5F60205AC4527DC40F21C
:10070000B745C4F20205AC4542DC40F27045C4F284
:100710000205AC456FD040F28845C4F20205AC45F5
:1007200069D040F2A04550E040F22745C4F20205EE
:10073000AC453CDCA025C4F20205AC455BD0B82535
:10074000C4F20205AC4556D040F210453DE045F2FA
:100750006B45C5F60205AC453ADC45F23045C5F6B9
:100760000205AC4547D045F24445C5F60205AC4507
:1007700041D045F2584539E05825C4F20205AC4550
:1007800039D07025C4F20205AC4534D088251CE070
:1007900040F2B845C4F20205AC452CD045F20845FC
:1007A000C5F60205AC4526D045F21C451EE040F2D8
:1007B0002845C4F20205AC451DD040F24045C4F2C4
:1007C0000205AC4517D040F25845C4F202050FE0CF
:1007D00045F26C45C5F60205AC450CD045F2944592
:1007E000C5F60205AC4506D045F28045C5F60205C2
:1007F000AC4540F0C880C66ED0E919576F6016B19D
:10080000D0E91C566E60A44515DC9F24C4F2020496
:10081000A4452BDC5724C4F20204A4454EDC10246A
:10082000C4F20204A44576D02824C4F20204A445EC
:1008300071D040246BE045F22F44C5F60204A44574
:1008400027DC40F2B744C4F20204A44542DC40F283
:100850007044C4F20204A4455DD040F28844C4F25E
:100860000204A44557D040F2A04450E040F227448F
:10087000C4F20204A4453CDCA024C4F20204A44552
:1008800049D0B824C4F20204A44544D040F2104434
:100890003DE045F26B44C5F60204A4454BDC45F24D
:1008A0003044C5F60204A44557D045F24444C5F689
:1008B0000204A44551D045F258444AE05824C4F2F9
:1008C0000204A44527D07024C4F20204A44522D017
:1008D00088241CE040F2B844C4F20204A4451AD0B3
:1008E00045F20844C5F60204A44536D045F21C443E
:1008F0002FE040F22844C4F20204A4450BD040F299
:100900004044C4F20204A44505D040F25844C4F265
:100910000204A44537D1C46D3F2504F01F0480684C
:1009200005FA04F4CEF80840DCF8007027F48027BC
:10093000CCF800701AE045F26C44C5F60204A445F8
:100940000BD045F28044C5F60204A44505D045F21B
:100950009444C5F60204A44515D1C46D012504F0E4
:100960001F04806805FA04F4CEF804404028CCF84F
:10097000043004D1CCF80820CCF80C10F0BDCCF831
:100980000810CCF80C20F0BD704770472DE9F041FD
:10099000044601F0D2FC002C00F09681054694F844
:1009A000350002281AD140F2B7082768C4F20208BD
:1009B000474519DD40F25740C4F20200874224DC6B
:1009C00040F22740C4F20200874239DCB820C4F26A
:1009D0000200874251D040F2104049E0802060651B
:1009E000002084F834006FE15720C4F202008742EF
:1009F0001ADD8720C4F2020087422ADC5820C4F2A4
:100A00000200874239D0702032E040F28740C4F2C1
:100A10000200874224DC40F25840C4F202008742C0
:100A20002BD040F2704023E01020C4F20200874235
:100A300023D02820C4F2020087421ED0402017E0B5
:100A400040F22840C4F20200874216D040F24040F3
:100A50000EE08820C4F2020087420ED0A02007E0FA
:100A600040F2A040C4F20200874206D040F2884023
:100A7000C4F20200874240F04182386820F01E0034
:100A80003860384650F8141F21F0800140F26F465C
:100A90000160C4F20206B74217DC9F20C4F20200D4
:100AA00087422DDC5720C4F20200874250DC102020
:100AB000C4F20200874200F089802820C4F20200BC
:100AC000874200F0838040206BE045F22F40C5F65E
:100AD0000200874227DC40F2B740C4F2020087429E
:100AE00042DC40F27040C4F2020087426ED040F215
:100AF0008840C4F20200874268D040F2A04050E033
:100B000040F22740C4F2020087423CDCA020C4F23D
:100B1000020087425AD0B820C4F20200874255D062
:100B200040F210403DE045F26B40C5F602008742BE
:100B30003ADC45F23040C5F60200874246D045F225
:100B40004440C5F60200874240D045F2584039E0A3
:100B50005820C4F20200874238D07020C4F202004C
:100B6000874233D088201CE040F2B840C4F2020033
:100B700087422BD045F20840C5F60200874225D0B7
:100B800045F21C401EE040F22840C4F202008742B9
:100B90001CD040F24040C4F20200874216D040F21E
:100BA0005840C4F202000FE045F26C40C5F6020066
:100BB00087420BD045F29440C5F60200874205D02B
:100BC00045F28040C5F60200874269D1206E40F2AE
:100BD0000F420168C4F2020221F480719742016061
:100BE00010DC6F20C4F2020087421CDC3F20C4F2FC
:100BF0000200874232DC1020C4F2020087424FD04C
:100C000028204AE0B7421ADC40F23F40C4F202001A
:100C100087422ADC40F21040C4F2020087423FD0F3
:100C200040F2284039E09F20C4F20200874225DCD0
:100C30007020C4F20200874232D088202DE040F2BA
:100C40009F40C4F2020087421FDC40F27040C4F2B1
:100C50000200874224D040F288401EE04020C4F2C7
:100C6000020087421CD0582017E040F24040C4F2F6
:100C70000200874214D040F258400EE0A020C4F297
:100C8000020087420CD0B82007E040F2B840C4F21E
:100C90000200874204D040F2A040C4F20200874222
:100CA000386820F0010038603868C0070FD001F0C4
:100CB00044FB401B0628F7D320206065002084F801
:100CC0003400032084F835000120BDE8F08120685D
:100CD000404513DD40F25741C4F2020188421EDC58
:100CE00040F22741C4F20201884233DCB821C4F249
:100CF000020188424BD040F2104143E05721C4F238
:100D0000020188421ADD8721C4F2020188422ADCEE
:100D10005821C4F20201884239D0702132E040F2F9
:100D20008741C4F20201884224DC40F25841C4F2F7
:100D3000020188422BD040F2704123E01021C4F21E
:100D40000201884223D02821C4F2020188421ED029
:100D5000402117E040F22841C4F20201884216D037
:100D600040F240410EE08821C4F2020188420ED0D8
:100D7000A02107E040F2A041C4F20201884206D05F
:100D800040F28841C4F20201884240F0C380A16D64
:100D9000E26D3F2302F01F0203FA02F28A60B042C2
:100DA00017DC9F21C4F2020188422DDC5721C4F2D6
:100DB0000201884250DC1021C4F20201884200F096
:100DC00089802821C4F20201884200F083804021FA
:100DD0006BE045F22F41C5F60201884227DC40F264
:100DE000B741C4F20201884242DC40F27041C4F2D1
:100DF000020188426ED040F28841C4F2020188426A
:100E000068D040F2A04150E040F22741C4F2020114
:100E100088423CDCA021C4F2020188425AD0B821A9
:100E2000C4F20201884255D040F210413DE045F243
:100E30006B41C5F6020188423ADC45F23041C5F605
:100E40000201884246D045F24441C5F6020188427B
:100E500040D045F2584139E05821C4F2020188429D
:100E600038D07021C4F20201884233D088211CE0BE
:100E700040F2B841C4F2020188422BD045F2084149
:100E8000C5F60201884225D045F21C411EE040F221
:100E90002841C4F2020188421CD040F24041C4F211
:100EA0000201884216D040F25841C4F202010FE01C
:100EB00045F26C41C5F6020188420BD045F29441DF
:100EC000C5F60201884205D045F28041C5F602010F
:100ED00088420BD1E06ED4E919124A6030B1016842
:100EE00021F480710160D4E91C01416000200121DE
:100EF00084F8340084F83510BDE8F08140F2B84041
:100F0000C4F20200874238683FF4B8AD20F00E0109
:100F10003846BBE540F2B841C4F202018842A16DF7
:100F20003FF436AFE26D012302F01F0203FA02F232
:100F30004A6034E710B5E8B190F83510022917D1AE
:100F400040F20F420168C4F20202914214DC6F23A6
:100F5000C4F20203994224DC3F23C4F20203994203
:100F60003ADC1023C4F20203994258D0282352E0FD
:100F7000802141650121BFE040F26F43C4F20203CA
:100F800099421ADC40F23F43C4F2020399422ADC40
:100F900040F21043C4F20203994240D040F2284389
:100FA00039E09F23C4F20203994225DC7023C4F286
:100FB0000203994233D088232DE040F29F43C4F2CC
:100FC000020399421FDC40F27043C4F202039942CB
:100FD00025D040F288431EE04023C4F20203994228
:100FE0001DD0582317E040F24043C4F20203994257
:100FF00015D040F258430EE0A023C4F202039942F8
:101000000DD0B82307E040F2B843C4F2020399427E
:1010100005D040F2A043C4F2020399426ED10423EA
:10102000914280F8353010DC6F20C4F2020081421A
:1010300020DC3F20C4F20200814236DC1020C4F2E2
:101040000200814253D028204EE040F26F40C4F2AB
:10105000020081421ADC40F23F40C4F202008142A9
:101060002ADC40F21040C4F2020081423FD040F23C
:10107000284039E09F20C4F20200814225DC702024
:10108000C4F20200814232D088202DE040F29F401D
:10109000C4F2020081421FDC40F27040C4F2020040
:1010A000814224D040F288401EE04020C4F2020079
:1010B00081421CD0582017E040F24040C4F20200A8
:1010C000814214D040F258400EE0A020C4F2020049
:1010D00081420CD0B82007E040F2B840C4F20200D0
:1010E000814204D040F2A040C4F20200814208686C
:1010F00020F0010008600021084610BD0A6845F292
:10110000574322F00E02C5F602030A6099420A68AC
:1011100022F001020A600EDC45F22F42C5F60202FF
:10112000914217DC45F20842C5F60202914226D0F0
:1011300045F21C421FE045F27F42C5F60202914291
:1011400011DC45F25842C5F60202914217D045F231
:101150006C4210E045F23042C5F6020291420ED0D8
:1011600045F2444207E045F29442C5F6020291423C
:1011700005D045F28042C5F6020291421AD1D0E96B
:10118000183ED0E916C21968012421F4807102F0DA
:101190001F02196004FA02F1CCF80410816ECEF837
:1011A0000410C16E31B10A6822F480720A60D0E97D
:1011B0001C124A600021012280F8341080F835208A
:1011C000026D002A98D0904795E7406D7047000067
:1011D0002DE9F04782B0002148F2B512019140F2AA
:1011E0000441C2F20041C1F64E320968044640F2A1
:1011F0006F490068A1FB0218C4F20209A56D4845B9
:101200002E68296815DC9F21C4F2020188422BDC7C
:101210005721C4F2020188424FDC1021C4F20201BE
:10122000884278D02821C4F20201884273D040213C
:101230006CE045F22F42C5F60202904227DC40F2F4
:10124000B742C4F20202904243DC40F27041C4F261
:10125000020188425FD040F28841C4F20201884214
:1012600059D040F2A04151E040F22741C4F20201BE
:1012700088423DDCA021C4F2020188424BD0B82153
:10128000C4F20201884246D040F210413EE045F2ED
:101290006B42C5F60202904273DC45F23042C5F65D
:1012A0000202904200F0808045F24442C5F60202FC
:1012B000904279D045F2584271E05821C4F20201BF
:1012C000884228D07021C4F20201884223D08821AC
:1012D0001CE040F2B842C4F2020290421BD045F238
:1012E0000842C5F6020290425ED045F21C4256E02A
:1012F00040F22841C4F2020188420CD040F2404141
:10130000C4F20201884206D040F25841C4F2020100
:10131000884240F00E83E16D082201F01F0140F287
:101320000F4A8A40C4F2020A324200F0D38050458C
:101330004FF0040312DC6F27C4F20207B84261DCED
:101340003F27C4F20207B84200F394801027C4F28A
:101350000207B84200F0B2802827AAE048455DDCC9
:1013600040F23F47C4F20207B84200F38A8040F2DD
:101370001047C4F20207B84200F0A08040F22847AC
:1013800097E045F26C42C5F6020290420CD045F25D
:101390008042C5F60202904206D045F29442C5F65C
:1013A0000202904240F0C5820268E36D570703F0E5
:1013B0001F030ED504279F4017EA010609D0110428
:1013C0006F603AD491063CD4016821F004010160B9
:1013D00037E0970737D502279F4017EA010632D03A
:1013E00011046F6000F1A882910600F1A9820168E2
:1013F00021F00A010160002084F83400012084F803
:1014000035009DE29F27C4F20207B84242DC7027F4
:10141000C4F20207B84251D088274AE040F29F4701
:10142000C4F20207B8423CDC40F27047C4F2020743
:10143000B84243D040F288473BE0D00301D4A16CCE
:1014400074E2216C72E2120740F1738208229A4022
:10145000114000F06E820168012221F00E0101604E
:1014600002FA03F068600020626584F8340084F8B2
:1014700035205AE24027C4F20207B8421ED058274E
:1014800017E040F24047C4F20207B84216D040F2DB
:1014900058470EE0A027C4F20207B8420ED0B82782
:1014A00007E040F2A047C4F20207B84206D040F27B
:1014B000B847C4F20207B84218BF082307681F42A2
:1014C00008D0036823F004030360AA60626D42F051
:1014D0000102626501228A4032426AD0504510DC26
:1014E0006F23C4F2020398421CDC3F23C4F20203C0
:1014F000984232DC1023C4F20203984251D02823D0
:101500004AE048451ADC40F23F43C4F202039842E5
:101510002ADC40F21043C4F20203984241D040F268
:10152000284339E09F23C4F20203984225DC70234C
:10153000C4F20203984234D088232DE040F29F4346
:10154000C4F2020398421FDC40F27043C4F202036B
:10155000984226D040F288431EE04023C4F20203A2
:1015600098421ED0582317E040F24043C4F20203D1
:10157000984216D040F258430EE0A023C4F2020372
:1015800098420ED0B82307E040F2A043C4F2020311
:10159000984206D040F2B843C4F20203984240F0A9
:1015A000D18143691B0604D5AA60626D42F0020234
:1015B000626504228A4032426AD0504510DC6F23B3
:1015C000C4F2020398421CDC3F23C4F20203984297
:1015D00032DC1023C4F20203984251D028234AE09F
:1015E00048451ADC40F23F43C4F2020398422ADC29
:1015F00040F21043C4F20203984241D040F2284323
:1016000039E09F23C4F20203984225DC7023C4F220
:101610000203984234D088232DE040F29F43C4F265
:10162000020398421FDC40F27043C4F20203984266
:1016300026D040F288431EE04023C4F202039842C1
:101640001ED0582317E040F24043C4F202039842F0
:1016500016D040F258430EE0A023C4F20203984291
:101660000ED0B82307E040F2A043C4F20203984230
:1016700006D040F2B843C4F20203984240F06481BD
:1016800003689B0704D5AA60626D42F0040262659C
:10169000102202FA01F131427BD050454FF008028E
:1016A00010DC6F23C4F2020398421CDC3F23C4F217
:1016B0000203984232DC1023C4F20203984251D054
:1016C00028234AE048451ADC40F23F43C4F20203B3
:1016D00098422ADC40F21043C4F20203984241D0FF
:1016E00040F2284339E09F23C4F20203984225DCEC
:1016F0007023C4F20203984234D088232DE040F2D4
:101700009F43C4F2020398421FDC40F27043C4F2CC
:101710000203984226D040F288431EE04023C4F2E0
:10172000020398421ED0582317E040F24043C4F20F
:101730000203984216D040F258430EE0A023C4F2B0
:10174000020398420ED0B82307E040F2A043C4F24F
:101750000203984206D040F2B843C4F20203984212
:1017600018BF04220368134213D0A960016849031B
:10177000016806D4C90506D4016821F0080101609A
:1017800001E0080301D4216C00E0A16C09B12046FE
:101790008847E06D00F01F01202000FA01F232427C
:1017A00000F0A08020681023504510DC6F27C4F2A1
:1017B0000207B8421CDC3F27C4F20207B84232DC01
:1017C0001027C4F20207B84251D028274AE0484502
:1017D0001ADC40F23F47C4F20207B8422ADC40F26A
:1017E0001047C4F20207B84241D040F2284739E01E
:1017F0009F27C4F20207B84225DC7027C4F2020713
:10180000B84234D088272DE040F29F47C4F2020747
:10181000B8421FDC40F27047C4F20207B84226D03B
:1018200040F288471EE04027C4F20207B8421ED0AB
:10183000582717E040F24047C4F20207B84216D0DA
:1018400040F258470EE0A027C4F20207B8420ED07B
:10185000B82707E040F2A047C4F20207B84206D01A
:1018600040F2B847C4F20207B84218BF0223076823
:101870001F4237D0AA6094F83520042A026819D193
:1018800022F016020260426922F080024261226C5C
:101890000AB9A26C1AB1026822F0080202603F2065
:1018A0008840A860002084F83400012084F83500C6
:1018B000216D3BE0510301680CD4C9050ED40168C9
:1018C00021F010010160002084F83400012084F828
:1018D000350003E0080301D4616C00E0E16B09B15D
:1018E00020468847606D20B3606DC0071DD004207E
:1018F00084F835002068016821F001024FEA982140
:10190000026000BF019A01328A42019202D8026845
:10191000D207F7D1002184F834100068C0074FF0D7
:10192000030008BF012084F83500E16C09B12046AE
:10193000884702B0BDE8F087D00301D4616CF5E7B9
:10194000E16BF3E7026834E60268A1E62DE9F041B5
:10195000044600F0F2FC002C00F0E08040F26F48FA
:1019600005462068C4F20208404515DC9F21C4F2F8
:10197000020188422BDC5721C4F20201884251DC6B
:101980001021C4F2020188427AD02821C4F2020157
:10199000884275D040216EE045F22F41C5F6020124
:1019A000884227DC40F2B741C4F20201884245DC9C
:1019B00040F27041C4F20201884261D040F2884195
:1019C000C4F2020188425BD040F2A04153E040F2F1
:1019D0002741C4F2020188423FDCA021C4F2020187
:1019E00088424DD0B821C4F20201884248D040F26A
:1019F000104140E045F26B41C5F60201884200F318
:101A0000908045F23041C5F60201884200F09C808A
:101A100045F24441C5F60201884200F0958045F246
:101A200058418CE05821C4F20201884228D070212C
:101A3000C4F20201884223D088211CE040F2B84160
:101A4000C4F2020188421BD045F20841C5F60201EA
:101A5000884279D045F21C4171E040F22841C4F23D
:101A6000020188420CD040F24041C4F20201884297
:101A700006D040F25841C4F20201884240F0A881E9
:101A8000002184F83410022184F83510016821F017
:101A9000010101600168C90706D000F04EFC401B3F
:101AA000052836D82068F5E748F23F020168CFF6EE
:101AB000106204F10806114065694CCE1143A26919
:101AC0001943E3693143266A0D43616A15430429CA
:101AD00043EA050343EA060303D1D4E90B65334324
:101AE0002B4341F20006C5F600463668B6F1005FAA
:101AF0006FD36568A5F13F06132E64D80127B74060
:101B000040F20F36C0F20F0637425CD043F4801328
:101B10005FE020206065032084F835000120BDE8E7
:101B2000F08145F26C41C5F6020188420CD045F2C5
:101B30008041C5F60201884206D045F29441C5F6BF
:101B40000201884240F04481002184F834100221CF
:101B500084F835100168A268A2F180036FF31011B8
:101B6000B3FA83F3E7685B0941EAD7019B03402A94
:101B700008BF102322691943636941EAD201A269AF
:101B800041EAD301E36941EAD201226A41EAD30181
:101B900041EA121140F808194CF6CD41CCF6CC417F
:101BA000C0B2A0FB01016FF0030000EA9100E06504
:101BB0002046FEF72DFCE16D012201F01F0102FA23
:101BC00001F1416040E0A5F12906062E38BF43F43B
:101BD000801303600429436923F0070341EA0301EA
:101BE00027D1D4E90A5341EA050113B3B2F5005FE6
:101BF00006D08AB9022D12D0012D07D07DB118E090
:101C0000032D16D8DFE805F00E0B0E02A3F1C0720B
:101C1000B2FA82F2520904E0032D03D309D1C3F3CF
:101C2000006232B140206065012084F83500BDE8D3
:101C3000F08141612046FEF7EBFBE16D3F2201F0B0
:101C40001F0102FA01F181602068404517DC9F21E5
:101C5000C4F2020188422DDC5721C4F202018842FD
:101C600050DC1021C4F20201884200F08980282152
:101C7000C4F20201884200F0838040216BE045F20B
:101C80002F41C5F60201884227DC40F2B741C4F279
:101C90000201884242DC40F27041C4F202018842F3
:101CA0006ED040F28841C4F20201884268D040F20E
:101CB000A04150E040F22741C4F2020188423CDCDE
:101CC000A021C4F2020188425AD0B821C4F2020114
:101CD000884255D040F210413DE045F26B41C5F6D7
:101CE000020188423ADC45F23041C5F602018842E1
:101CF00046D045F24441C5F60201884240D045F243
:101D0000584139E05821C4F20201884238D070218C
:101D1000C4F20201884233D088211CE040F2B8416D
:101D2000C4F2020188422BD045F20841C5F60201F7
:101D3000884225D045F21C411EE040F22841C4F201
:101D4000020188421CD040F24041C4F202018842A4
:101D500016D040F25841C4F202010FE045F26C4146
:101D6000C5F6020188420BD045F29441C5F6020146
:101D7000884205D045F28041C5F60201884220D153
:101D80002046FEF7D1FBA068802802D100206060C9
:101D900000E0606804F16007C1B28CCF0138072809
:101DA00011605F6009D82046FEF72EFCD4E91B01C4
:101DB0000022636F02604B6003E00020C4E91B0057
:101DC000606700200121606584F83510BDE8F0816E
:101DD00040209FE6B0B5D0B3054690F83400012806
:101DE00001D10220B0BD012085F8340095F83500FE
:101DF000012826D1022085F8350000206865286872
:101E0000046824F0010404602846FEF74FFCB72163
:101E10002868C4F2020188421BDD40F25741C4F237
:101E20000201884226DC40F22741C4F202018842C6
:101E30003BDCB821C4F20201884253D040F2104189
:101E40004BE0002085F834004FF400606865012005
:101E5000B0BD5721C4F2020188421ADD8721C4F2C5
:101E6000020188422ADC5821C4F20201884239D09A
:101E7000702132E040F28741C4F20201884224DC42
:101E800040F25841C4F2020188422BD040F2704126
:101E900023E01021C4F20201884223D02821C4F299
:101EA000020188421ED0402117E040F22841C4F2CE
:101EB0000201884216D040F240410EE08821C4F26F
:101EC000020188420ED0A02107E040F2A041C4F2F6
:101ED0000201884206D040F28841C4F202018842E1
:101EE00040F0238101680B2262F344010160296CF8
:101EF00019B1016841F00801016040F26F41C4F27C
:101F00000201884217DC9F22C4F2020290422DDCBB
:101F10005722C4F20202904250DC1022C4F20202A4
:101F2000904200F089802822C4F20202904200F020
:101F3000838040226BE045F22F42C5F602029042B8
:101F400027DC40F2B742C4F20202904242DC40F287
:101F50007042C4F2020290426ED040F28842C4F253
:101F60000202904268D040F2A04250E040F2274284
:101F7000C4F2020290423CDCA022C4F2020290426F
:101F80005AD0B822C4F20202904255D040F2104218
:101F90003DE045F26B42C5F6020290423ADC45F262
:101FA0003042C5F60202904246D045F24442C5F6A0
:101FB0000202904240D045F2584239E05822C4F221
:101FC0000202904238D07022C4F20202904233D012
:101FD00088221CE040F2B842C4F2020290422BD0A8
:101FE00045F20842C5F60202904225D045F21C4255
:101FF0001EE040F22842C4F2020290421CD040F29D
:102000004042C4F20202904216D040F25842C4F25A
:1020100002020FE045F26C42C5F6020290420BD07C
:1020200045F29442C5F60202904205D045F2804244
:10203000C5F60202904272D12A6E1368DB0303D503
:10204000136843F480731360EA6E1AB1136843F4A3
:102050008073136040F20F42C4F20202904210DC1F
:102060006F21C4F2020188421CDC3F21C4F202014C
:10207000884232DC1021C4F2020188424FD028216C
:102080004AE088421ADC40F23F41C4F20201884231
:102090002ADC40F21041C4F2020188423FD040F2F3
:1020A000284139E09F21C4F20201884225DC7021D9
:1020B000C4F20201884232D088212DE040F29F41D3
:1020C000C4F2020188421FDC40F27041C4F20201F6
:1020D000884224D040F288411EE04021C4F202012F
:1020E00088421CD0582117E040F24041C4F202015E
:1020F000884214D040F258410EE0A021C4F20201FF
:1021000088420CD0B82107E040F2B841C4F2020185
:10211000884204D040F2A041C4F202018842016822
:1021200041F0010101600020B0BD40F2B841C4F2AD
:102130000201884201683FF4D6AE052262F34301F2
:102140000160296C00293FF4D8AE016841F0040118
:10215000D2E600002DE9F04F84B00F680190002F07
:1021600000F0E180019842F2004500F12642C5F6F8
:10217000020502F1FF720A234FEAB226A84208BF05
:102180000923092E4FF001094FF0000A4FF0010614
:102190004FF000054FF0000838BF4FEAB22300931C
:1021A000701E09FA00F217EA020300F0A780D1F8C6
:1021B00004B00293BBF1120F00F2AE8009FA0BF7E4
:1021C00017F0061F00F0A880019C0323A76803FAFC
:1021D00005FECB6827EA0E07AB404FEA480C3B43AD
:1021E0006FEA0E0EA3606368CBF3001723EA0202C6
:1021F00007FA00F31A436260E2688B6802EA0E0293
:1022000003FA0CF34BF010071A43122FE26016D1B9
:102210006FF003020AF01C0702EA50020F23224467
:10222000BB40D2F820B0D1F810902BEA030309FA92
:1022300007F73B434FF001091362D1F804B022685D
:102240000BF0030302EA0E0203FA0CF31A435FEAEF
:10225000CB032260029C51D544F2F44240F208477D
:10226000C5F60202C5F600071346126842F00202E4
:10227000BE461A601A680AF00C0302F002020392CA
:10228000039A20F003024FF0B04052F807C00F2726
:102290009F402CEA070C009F07FA03F343EA0C0364
:1022A00042F80E300422C5F60002D2F87CC09646F1
:1022B0004B684CEA0407DA0358BF2CEA0407CEF84F
:1022C0007C709F03DEF880C04CEA040258BF2CEA01
:1022D0000402CEF88020D0F800C0DF024CEA0402ED
:1022E00058BF2CEA04020260DEF800709B0247EA45
:1022F000040258BF27EA0402CEF800200F6808F154
:10230000010837FA06F205F1020506F101060AF1A5
:10231000040A7FF445AF06E00322AC46AA40019CC4
:102320006FEA020E68E704B0BDE8F08F41F20000EA
:10233000C5F600400068000C704740F29450C2F2AD
:1023400000400068704740F20C4040F29451C2F2E5
:102350000040C2F2004100780A68104408607047EB
:1023600080B5032000F0A2F800F0BEFF44F218414F
:1023700044F67C73C5F60201C0F600030A68C2F396
:10238000032209689A5C01F00F01595C02F01F02F8
:10239000D04001F01F0140F2084220FA01F1C2F2E0
:1023A0000042116040F20441C2F200410860002086
:1023B00000F007F808B1012080BD00F02CF80020E3
:1023C00080BDB0B540F20C41C2F200410978F9B1CC
:1023D00004464FF47A70B0FBF1F040F20441C2F2CF
:1023E00000410968B1FBF0F001F058FA0F2C4FF0F2
:1023F00001050ED868B94FF0FF30002221460025B4
:1024000000F028F840F21040C2F20040046000E002
:1024100001252846B0BD81B044F2F440C5F6020063
:10242000016841F002010160006800F002000090C4
:10243000009801B0704700280BD400F01F01012262
:1024400002FA01F14EF200124009CEF2000242F807
:1024500020107047B0B54EF60C5C4FF0FF35CEF251
:10246000000CDCF80030C3F3022E8EF00703042BBF
:1024700028BF0423BEF1030405FA03F338BF002488
:10248000994305FA04F3A1409A4300F00F03114366
:102490001A1F624400F160430C32B0F1FF3F4FEA73
:1024A0000110C8BF03F564421070B0BD4EF60C5168
:1024B0004FF6FF03CEF200010A681A4060F30A22C9
:1024C00042F0806040F0FD7008607047B0B544F69F
:1024D0000C05C5F6020529684907296805D401F0ED
:1024E0000701081A18BF0120B0BD21F007010843F9
:1024F0002860FFF722FF044655F8080C800407D433
:10250000FFF71BFF001BB0F57A7FF5D90120B0BDA6
:102510000020B0BD80B500F09AFE44F2204144F6A0
:102520007C72C5F60201C0F600020968C1F302110F
:10253000515C01F01F01C84080BD000080B544F22D
:10254000004EC5F6020EDEF82830DEF82820C2F371
:10255000053CDEF82C20C2F30012DEF83C10C1F37B
:10256000CC01BCF1000F02FB01F100EE101AB8EE35
:10257000400A0BD003F00303022B0BD06BB9DEF83B
:10258000001089060CD49FED341A17E00021C0E931
:1025900000115BE09FED2F1A10E09FED2D1A0DE06A
:1025A000DEF8001049F20002C1F3C101C0F2D032DE
:1025B00022FA01F101EE101AB8EE411A02EE10CA29
:1025C0009FED263AB8EE422ADEF838106FF35F210D
:1025D00081EE021A02EE101AB8EE422ADEF8381026
:1025E000C1F3462100EE032AB7EE000A03EE101AEB
:1025F00032EE002AB8EE433A21EE021A33EE002AF8
:1026000081EE022ABCEEC22A80ED002ADEF83810E4
:10261000C1F3064102EE101AB8EE422A32EE002A49
:1026200081EE022ABCEEC22A80ED012ADEF83810C3
:10263000C1F3066102EE101AB8EE422A32EE000A29
:1026400081EE000ABCEEC00A10EE101A816080BD57
:102650000024744A20BCBE4B0024744C0000003996
:1026600080B544F2004EC5F6020EDEF82830DEF8E2
:102670002820C2F3055CDEF82C20C2F30022DEF82D
:102680004410C1F3CC01BCF1000F02FB01F100EEDC
:10269000101AB8EE400A0BD003F00303022B0BD044
:1026A0006BB9DEF8001089060CD49FED341A17E0E0
:1026B0000021C0E900115BE09FED2F1A10E09FEDB3
:1026C0002D1A0DE0DEF8001049F20002C1F3C1013D
:1026D000C0F2D03222FA01F101EE101AB8EE411A1E
:1026E00002EE10CA9FED263AB8EE422ADEF84010FC
:1026F0006FF35F2181EE021A02EE101AB8EE422A41
:10270000DEF84010C1F3462100EE032AB7EE000ABE
:1027100003EE101A32EE002AB8EE433A21EE021A06
:1027200033EE002A81EE022ABCEEC22A80ED002A96
:10273000DEF84010C1F3064102EE101AB8EE422A4C
:1027400032EE002A81EE022ABCEEC22A80ED012A76
:10275000DEF84010C1F3066102EE101AB8EE422A0C
:1027600032EE000A81EE000ABCEEC00A10EE101A2A
:10277000816080BD0024744A20BCBE4B0024744C90
:10278000000000392DE9F0470446C07844F21048B3
:102790000007C5F6020825D5606E4FEA30510329BF
:1027A0000AD8DFE801F0020B1018D8F81C1041F429
:1027B0000031C8F81C100EE0012614E0201D022193
:1027C00001F00EFC04E004F12400022101F08CFC75
:1027D000064640B9606ED8F8401021F44011084315
:1027E000C8F8400000266078C00701D1354629E0CE
:1027F000606D04280DD83546DFE800F0030E13198C
:102800001900D8F81C00354640F40030C8F81C0008
:102810000DE00125012716E0201D002101F0E0FB5D
:1028200004E004F12400002101F05EFC05462F467F
:102830004DB9D8F84000616D20F00700002508432D
:10284000C8F8400037466078800729D5A06D4FEA68
:10285000B01004280BD8DFE800F0030D12181800A0
:10286000D8F81C0040F40030C8F81C000DE0012529
:10287000012616E0201D002101F0B2FB04E004F166
:102880002400002101F030FC05462E464DB9D8F851
:102890004000A16D20F4E07000250843C8F8400016
:1028A0003E46607840072CD5D4F8A4004FEA70501B
:1028B00004280BD8DFE800F0030E13191900D8F82C
:1028C0001C0040F40030C8F81C000EE001254FF059
:1028D000010917E0201D002101F082FB04E004F152
:1028E0002400002101F000FC0546A94655B9D8F89E
:1028F0004800D4F8A41020F4600000250843C8F86C
:102900004800B146607800072BD5D4F8A8004FEAFC
:10291000306004280BD8DFE800F0030D121818000F
:10292000D8F81C0040F40030C8F81C000DE0012568
:10293000012717E0201D002101F052FB04E004F103
:102940002400002101F0D0FB05462F4655B9D8F8E8
:102950004800D4F8A81020F0E06000250843C8F82B
:1029600048004F46E078800722D5A06C4FEA30102F
:1029700003280AD8DFE800F011020C11D8F81C0077
:1029800040F40030C8F81C0007E00125012610E0E3
:10299000201D022101F024FB05462E464DB9D8F832
:1029A0003C00A16C20F0300000250843C8F83C0032
:1029B0003E466078C00629D5E06D4FEA30300428E5
:1029C0000BD8DFE800F0030D12181800D8F81C002F
:1029D00040F40030C8F81C000DE00125012716E086
:1029E000201D002101F0FCFA04E004F12400002184
:1029F00001F07AFB05462F464DB9D8F84000E16D4D
:102A000020F4E04000250843C8F8400037466078CD
:102A1000800622D5206E4FEA3040052809D8DFE82D
:102A200000F011030B111111201D012101F0D8FA42
:102A300007E00125012611E004F12400012101F045
:102A400053FB05462E464DB9D8F84000216E20F4C0
:102A5000E02000250843C8F840003E466078400664
:102A600024D5D4F8AC004FEA3070052809D8DFE847
:102A700000F011030B111111201D012101F0B0FA1A
:102A800007E00125012712E004F12400012101F0F3
:102A90002BFB05462F4655B9D8F84800D4F8AC10A2
:102AA00020F0E04000250843C8F848003746607829
:102AB00000061ED5E06E88B1B0F1005F09D0B0F11C
:102AC000805F28D1D8F81C0040F40030C8F81C0002
:102AD00004E0201D012101F083FA05462E464DB980
:102AE000D8F84000E16E20F0405000250843C8F8B7
:102AF00040003E46E078C00724D0606C03280DD823
:102B0000DFE800F015021015D8F81C0040F4003082
:102B1000C8F81C000BE001250126EBE701254FF06A
:102B2000010910E0201D022101F05AFA0546A946CC
:102B30004DB9D8F83C00616C20F003000025084333
:102B4000C8F83C00B146A078400601D44F4617E0D3
:102B5000D8F8F00340F48070C8F8F003FFF7EDFBFD
:102B6000064600BFD8F8F003C00507D4FFF7E5FB21
:102B7000801B6428F6D90325032701E02F468DB179
:102B80002078C00753D0A06F4FEAF00005283AD84C
:102B9000DFE800F042033C424242201D012101F0E7
:102BA0001FFA38E0D8F86010D4F8B000414011F4B2
:102BB000407F11D0D8F86010D8F8602042F48032FD
:102BC00021F44071C8F86020D8F8602022F48032E7
:102BD000C8F86020C8F86010B0F5807F40F0F98137
:102BE000FFF7ABFB064641F2883A0325032700BFF7
:102BF000D8F86000800700F1EA81FFF79EFB801B98
:102C00005045F5D9BCE70125012611E004F1240067
:102C1000012101F069FA05462E464DB9D8F8440065
:102C2000A16F20F0380000250843C8F844003E4654
:102C30002078800720D5606F052809D8DFE800F0EC
:102C400011030B111111201D012101F0C9F907E039
:102C50000125012711E004F12400012101F044FACB
:102C600005462F464DB9D8F84400616F20F00700A3
:102C700000250843C8F8440037462078400722D58D
:102C8000D4F89000052809D8DFE800F011030B11F3
:102C90001111201D012101F0A3F907E001260125F2
:102CA00012E004F12400012101F01EFA05462E462F
:102CB00055B9D8F84800D4F8901020F00700002546
:102CC0000843C8F848003E462078800624D5D4F84A
:102CD0008C004FEA3070052809D8DFE800F01103B6
:102CE0000B111111201D002101F07AF907E00127D5
:102CF000012512E004F12400022101F0F5F9054656
:102D00002F4655B9D8F84400D4F88C1020F0E04094
:102D100000250843C8F8440037462078400624D5EB
:102D2000D4F898004FEAB020052809D8DFE800F071
:102D300011030B111111201D002101F051F907E0C1
:102D40000126012512E004F12400022101F0CCF952
:102D500005462E4655B9D8F84800D4F8981020F406
:102D6000E05000250843C8F848003E462078000699
:102D700024D5D4F89C004FEA7030052809D8DFE844
:102D800000F011030B111111201D002101F028F991
:102D900007E00127012512E004F12400022101F0DF
:102DA000A3F905462F4655B9D8F84800D4F89C1029
:102DB00020F4604000250843C8F8480037462068E2
:102DC000010716D5D4F88010B1F5805F0AD104F15F
:102DD0002400022101F088F9002818BF012720688B
:102DE000D4F88010D8F8442022F440521143C8F897
:102DF0004410C10616D5D4F89410B1F5807F0AD1DD
:102E000004F12400022101F06FF9002818BF012706
:102E10002068D4F89410D8F8482022F44072114366
:102E2000C8F8481000031FD5D4F8A000B0F5003F43
:102E30000ED0B0F5803F05D068BB201D002101F009
:102E4000CFF804E004F12400022101F04DF9054619
:102E50002E4655B9D8F84800D4F8A01020F44030D8
:102E600000250843C8F848003E46A078400727D50B
:102E7000D4F88400B0F5401F16D0B0F5001F0DD077
:102E8000B0F5801F40F09E80D8F81C0040F4003060
:102E9000C8F81C0008E001260125E6E704F124003B
:102EA000012101F021F905462F4655B9D8F8440013
:102EB000D4F8841020F4401000250843C8F84400DA
:102EC0003746A078C00701D13E461EE0E06CB0F561
:102ED000803F07D0B8B9D8F81C0040F40030C8F8DB
:102EE0001C0004E0201D022101F07AF805462E4660
:102EF0005DB9D8F83C00E16C20F48030002508432F
:102F0000C8F83C00E0E7012601252068810008D5CB
:102F100004F12400022101F0E7F8002818BF01267F
:102F20002068810319D5E16F6FF0010202EB3122B5
:102F3000022A0AD34FEA31223AB1012A45D1D8F800
:102F40001C2042F40032C8F81C203DB9D8F84420B7
:102F500022F440721143C8F844103546C10207D527
:102F6000D8F84010226F21F000411143C8F84010FA
:102F7000810207D5D8F84010A26E21F0807111436C
:102F8000C8F8401041000CD5D8F8001021F40041D9
:102F9000C8F80010D4F8B810D8F800201143C8F8C9
:102FA0000010B0F1FF3F07DCD8F83C00216D20F0A5
:102FB00040500843C8F83C00002D18BF01252846A2
:102FC000BDE8F087012701257BE70125C6E7D4F896
:102FD000B00000F44071D8F80020B1F5407F22F431
:102FE0007C5106D14FF6CF72C0F2FF0202EA1012F6
:102FF0001143C8F800106FF31F30D8F86010002597
:103000000843C8F86000A1E52DE9F04381B000282D
:1030100000F0198142F200080446C5F200288946F2
:10302000D8F8000000F00F0088420ED2D8F8000057
:1030300020F00F0040EA0900C8F80000D8F80000AE
:1030400000F00F00484540F0FE80206844F2004741
:103050004107C5F602070AD52169BA6902F0700274
:10306000914204D9BA6922F070021143B961010793
:103070000AD56169FA6902F07002914204D9FA69CD
:1030800022F070021143F961C1060AD5A169FA69FB
:1030900002F4E062914204D9FA6922F4E062114339
:1030A000F96181060AD5E1693A6A02F0700291423B
:1030B00004D93A6A22F070021143396210F0020119
:1030C0000AD0E268BB6903F00F039A4204D9BB69D6
:1030D00023F00F031A43BA61C20736D0B86920F44F
:1030E0007061D4E9010211430328B96105D00228B7
:1030F00007D1396889030DD4A5E03968890109D45D
:10310000A1E00128396802D1C90503D49BE0490731
:1031100040F19980396921F0070108433861FFF7D0
:103120000CF9064641F288353869616800F03800CC
:10313000B0EBC10F06D0FFF700F9801BA842F3D90E
:10314000032081E0206800F0020151B1E168BA6912
:1031500002F00F02914204D2BA6922F00F02114329
:10316000B961D8F8001001F00F0149450DD9D8F820
:10317000001021F00F0141EA0901C8F80010D8F849
:10318000001001F00F0149455DD141070AD52169C1
:10319000BA6902F07002914204D2BA6922F0700258
:1031A0001143B96101070AD56169FA6902F0700239
:1031B000914204D2FA6922F070021143F961C1060A
:1031C0000AD5A169FA6902F4E062914204D2FA696F
:1031D00022F4E0621143F96180060AD5E069396A98
:1031E00001F07001884204D2396A21F0700108436D
:1031F000386200F079F8B96944F67C72C1F30321B2
:10320000C0F60002BB69515C03F00F03D25C01F011
:103210001F0120FA01F140F2104302F01F0040F2BA
:10322000084221FA00F0C2F20042106040F204426B
:10323000C2F20043C2F200421868116001B0BDE85A
:10324000F043FFF7BEB8012001B0BDE8F08380B5C0
:1032500000F04AF844F2184144F67C73C5F60201C6
:10326000C0F600030A68C2F3032209689A5C01F001
:103270000F01595C02F01F0220FA02F201F01F0058
:1032800040F2084122FA00F0C2F20041086040F228
:103290000441C2F200410A6080BD80B5FFF7D7FF4C
:1032A00044F21C4144F67C72C5F60201C0F60002ED
:1032B0000968C1F30211515C01F01F01C84080BDD3
:1032C00080B5FFF7C4FF44F21C4144F67C72C5F69A
:1032D0000201C0F600020968C1F30221515C01F04D
:1032E0001F01C84080BD000044F20041C5F6020144
:1032F0000869C0F3C20003280FD002282BD078BB86
:103300000868800649F20000C0F2D03058BF70470C
:103310000968C1F3C101C84070478A6A886AC0F36E
:10332000051CCB6A486B03F00103C0F3CC00BCF171
:10333000000F03FB00F000EE100AB8EE400A14D0B4
:1033400002F00302022A12D0A2B90868800614D43F
:103350009FED251A1EE047F64000C0F27D10704731
:1033600040F60010C0F23D007047002070479FED0E
:103370001D1A0FE09FED1A1A0CE0086849F20002CE
:10338000C0F3C100C0F2D03222FA00F001EE100A00
:10339000B8EE411A02EE10CA9FED143AB8EE422A76
:1033A000086B6FF35F2081EE021A02EE100AB8EE8E
:1033B000422A086BC0F3462000EE032AB7EE000A4B
:1033C000013032EE000A21EE000A01EE100AB8EEDA
:1033D000411A80EE010ABCEEC00A10EE100A7047D6
:1033E0000024744A20BCBE4B0024744C00000039F9
:1033F000F0B581B0002800F076810446007844F2F0
:103400000046C007C5F602064BD0306900F038010F
:10341000B06A102905D0182909D100F0030002284C
:1034200005D1306880033CD56068D0BB5BE1606843
:1034300068B1B0F5803F06D0B0F5A02F30681CD140
:1034400040F480203060306840F480301BE0306809
:1034500020F480303060306820F480203060FEF747
:103460006CFF0546306880031BD5FEF766FF401BE6
:1034700064284FF00300F5D94AE120F48030306031
:10348000306820F480203060FEF757FF054600BF0B
:103490003068800305D4FEF750FF401B6428F7D93D
:1034A00035E12078800738D5306910F03801B06AEE
:1034B00019D0182908BF5FEA807014D0E06831681D
:1034C00000286AD021F0190108433060FEF735FF6B
:1034D000054600BF306840070CD4FEF72EFF401BA6
:1034E0000228F7D913E13068400703D5E0680028C7
:1034F00000F0F980FEF71AFF41F20301884270687C
:1035000005D820F47C30216940EA013004E020F045
:10351000FE40216940EA016070602078C00660D5F5
:10352000306900F03801B06A082905D018290AD19D
:1035300000F00300012806D13068C00517D5E06906
:10354000802814D0CFE0E0690028306837D040F000
:1035500080003060FEF7F1FE054600BF3068C00510
:1035600005D4FEF7EAFE401B0228F7D9CFE0FEF7AC
:10357000DDFE41F20301884207D87068216A20F01D
:10358000F84040EA816070602BE0F068216A20F02A
:103590007C5040EA0160F06023E021F001003060DF
:1035A000FEF7CBFE054600BF30684007B5D5FEF7F5
:1035B000C4FE401B02284FF00300F5D9A8E020F01C
:1035C00080003060FEF7B9FE054600BF3068C005D8
:1035D00007D5FEF7B2FE401B02284FF00300F5D9D5
:1035E00096E02078000722D560690028706F0ED021
:1035F00040F001007067FEF7A0FE0546706F80077F
:1036000015D4FEF79AFE401B0228F7D97FE020F080
:1036100001007067FEF791FE054600BF706F8007DE
:1036200005D5FEF78AFE401B0228F7D96FE0207807
:10363000800624D5A069002830680ED040F4805060
:103640003060FEF77AFE05463068800417D4FEF736
:1036500074FE401B0228F7D959E020F480503060F6
:10366000FEF76BFE054600BF3068800407D5FEF705
:1036700064FE401B02284FF00300F5D948E0207893
:10368000400732D4656A002D00F0EE80306900F00A
:10369000380018284DD1012DB16A306B23D001F0CC
:1036A0000302A36A9A421ED1C1F30511E26A914254
:1036B00019D10146226B6FF35F21013A914212D179
:1036C000C0F34621626B013A91420CD1C0F306412E
:1036D000A26B013A914206D1C0F30660E16B013959
:1036E000884200F0C180012012E0D6F8000440F4C6
:1036F0008070C6F80004FEF720FE0546D6F80004E8
:10370000C00507D4FEF719FE401B6428F6D9032034
:1037100001B0F0BDA06868B3012806D00528306F5D
:1037200040F0A48040F004003067306F40F00100AA
:10373000A2E0306820F080703060FEF7FEFD022DC0
:1037400005460BD1306880012ED5FEF7F6FD401BF3
:1037500002284FF00300F5D9DAE700BF3068800196
:1037600040F18280FEF7E9FD401B02284FF0030084
:10377000F4D9CDE7306F20F001003067306F20F0D2
:1037800004003067FEF7D9FD054641F2883700BFD7
:10379000306F80077FF576AFFEF7CFFD401BB84254
:1037A0004FF00300F4D9B3E7B06A40F2F33104F10B
:1037B000280388430ECB0843616B40EA02105A1E6F
:1037C000B0624FF47E4000EB41206FF35F2280B285
:1037D000A16B4FF4FE03104403EB0141E26B4FF089
:1037E000FE4301F4FE0103EB0262084402F0FE41D5
:1037F00008444FF6F8713063F06A20F00100F0627F
:10380000706B8843A16C40EAC1007063F06A216C60
:1038100020F00C000843F062F06A616C20F00200B6
:103820000843F062F06A40F48030F062F06A40F4DD
:103830000030F062F06A40F48020F062F06A40F0FC
:103840000100F062306840F080703060FEF775FD76
:1038500004463068800107D4FEF76FFD001B022884
:103860004FF00300F5D953E7002051E720F00100A5
:103870003067306F20F004003067FEF75EFD0546CC
:1038800041F28837306F80073FF5FCAEFEF755FDFB
:10389000401BB8424FF00300F4D939E7411E002025
:1038A000B0EB116F01D0012070474EF21002F023EF
:1038B000CEF2000251604EF62351CEF200010B70A1
:1038C000072190601160704790F87C10012901D1A8
:1038D000022112E02421C0F88010026813681168E8
:1038E00021F0010123F000531160002141661360B3
:1038F0002022C0F8802080F87C100846704770476E
:10390000B0B5044690F87C00012801D10220B0BD7A
:10391000012084F87C002420C4F880002068056819
:10392000026822F001020260826822F060621143A4
:103930008160204600F0FAFC206805602020C4F871
:103940008000002084F87C00B0BDB0B5044690F83B
:103950007C00012801D10220B0BD012084F87C0048
:103960002420C4F8800020680568026822F0010263
:103970000260826822F0604211438160204600F0BC
:10398000D5FC206805602020C4F88000002084F861
:103990007C00B0BD70477047B0B504460168D0F8F0
:1039A0008000D4F88450212888681CD110F0800051
:1039B00019D0886820F080008860606F38B1FCF70B
:1039C000E5FF20B1606FFDF700FC202822D02168C0
:1039D000086820F0C0000860886820F40000886053
:1039E0002020C4F88000222D8A684FF0000027D1E3
:1039F00012F0400208BFB0BD886820F04000886027
:103A0000A06F60B1FCF7C2FF48B1A06FFDF7DDFB0E
:103A1000202804D11020C4F888000320B0BD2068FD
:103A20004FF6FE720168CEF6FF7221F490710160CC
:103A30008168114081602020C4F884000020E06685
:103A4000B0BD704770B504460068C26940F62F01EA
:103A500011400668202983680ED106F0200103F08A
:103A60008055491900F0A280E16E002900F0DC8049
:103A70002046BDE87040084740F60F010A4200F0BA
:103A80009580012140F22015C1F20001C0F20045ED
:103A900003EA010C06EA050111EB0C0100F0868037
:103AA000D10718BF16F4807107D001210162D4F844
:103AB000881041F00101C4F88810910703F0010E4D
:103AC0000AD5BEF1000F07D002210162D4F8881098
:103AD00041F00401C4F8881051070AD5BEF1000F67
:103AE00007D004210162D4F8881041F00201C4F823
:103AF000881011070CD506F0200151EA0C0107D0FF
:103B000008210162D4F8881041F00801C4F8881037
:103B100011050BD516F0806108D04FF400610162E9
:103B2000D4F8881041F02001C4F88810D4F8881027
:103B3000002979D012F020010AD006F0200103F00C
:103B40008052891804D0E16E11B120468847206860
:103B5000D4F88810826802F0400201F02801891828
:103B60005CD001684FF6FE7221F49071CEF6FF72C0
:103B700001608168114081602021C4F88410002117
:103B8000E1668168490644D5816821F04001816081
:103B9000A06FF0B344F2A741C0F600010165FDF744
:103BA000C9F9002840D0A06F016D62E7D1020AD5A3
:103BB00013F4800107D04FF4801101622046BDE864
:103BC0007040FFF7E8BE110607D506F0800103F448
:103BD0000003C91801D0216F47E702EA0601490630
:103BE0000DD5016821F0400101602020C4F880005B
:103BF000002020672046BDE8704000F066B9100242
:103C000013D516F0804010D02046BDE87040FFF775
:103C1000C1BE2046BDE87040FFF713BF2046FFF746
:103C200010FF0020C4F8880070BDD001FCD5B6F1AB
:103C3000FF3FF9DC2046BDE87040FFF760BE10B5DD
:103C4000B0B10446D0F8800028B9002084F87C0088
:103C5000204600F026F82420C4F88000206801687F
:103C600021F001010160204600F096FC012801D1FD
:103C7000012010BDA06A10B1204600F07EFB206834
:103C8000416821F490414160816821F02A018160FE
:103C9000016841F0010101602046BDE8104000F0DC
:103CA000CFBB2DE9F04387B0044602A81421FCF7EE
:103CB00047FB41F200012068C4F20101884266D14D
:103CC00044F2E0400026C5F6020040F21008016907
:103CD000C4F2020841F010010161016901F0100114
:103CE00001910199016841F00101016002A9006898
:103CF00000F00100019001984FF4C0600290022092
:103D000003900720CDE9046606900020C5F6020066
:103D1000FEF720FA40F218452920C2F200454FF480
:103D20008069C5E900804FF440372846AE60C5E998
:103D30000369C5E90566EE61C5E90876FDF706FE8B
:103D400008B1FCF722FEA56708F11800AC6340F249
:103D50009045C2F200452A2128604020C5E90110A3
:103D60002846C5E90369C5E90566C5E907676E62C6
:103D7000FDF7ECFD08B1FCF708FE25200321002229
:103D80006567AC63FEF766FB2520FEF754FB07B0C2
:103D9000BDE8F083B0B50546D0F88400202807D1EF
:103DA00013460A4691B38BB395F87C00012801D1E4
:103DB00002242CE00120002485F87C002220AA6542
:103DC000A5F85C30C5F88840C5F88400A86F00B33A
:103DD00044F22F5144F2635CC0F60001C0F6000CBF
:103DE000C0E90F1C44F2B741C0F60001C164296864
:103DF00004652431FDF7EEFF58B11020C5F88800A6
:103E0000002085F87C002020C5F880000124204691
:103E1000B0BD85F87C402868016841F4807101607C
:103E2000816841F001018160816841F04001816059
:103E3000EDE770477047B0B50546D0F88000202800
:103E400006D1A9B313469AB395F87C00012801D195
:103E500002242EE00120002485F87C002120296521
:103E6000A5F85430A5F85630C5F88840C5F880004C
:103E7000686F00B344F2695244F2915CC0F60002EC
:103E8000C0F6000CC0E90F2C44F2B742C0F60002A5
:103E9000C2642A6804652832FDF79CFF58B11020DF
:103EA000C5F88800002085F87C002020C5F8800037
:103EB00001242046B0BD28684021016285F87C407D
:103EC000816841F080018160F3E77047704700002E
:103ED000FEE780B582B044F2D8400022C5F6020069
:103EE000016841F0010101600021006800F001005B
:103EF000019001980B20FEF7ADFA0B20FEF79BFA1C
:103F00000C2000210022FEF7A5FA0C2002B0BDE82B
:103F10008040FEF790BA83B044F2E040C5F602005C
:103F2000016841F004010160016801F0040102919F
:103F30000299016841F080010160016801F080018F
:103F400001910199016841F001010160006800F0F0
:103F500001000090009803B0704710B540F208547B
:103F600041F20000C2F20044C4F201004FF4E1311A
:103F700020600020C4E901100C21E060C4E90401C4
:103F800004F118001421FCF7DBF92046FFF757FE77
:103F900008B1FCF7FAFC40F208500021C2F20040E0
:103FA000FFF7D3FC08B1FCF7F0FC40F20850002109
:103FB000C2F20040FFF7A4FC08B1FCF7E6FC40F2B7
:103FC0000850C2F20040FFF77FFC18B1BDE8104076
:103FD000FCF7DBBC10BD0000FEE770477047000037
:103FE000F0B581B044F20047C5F60207BA6A02F0A4
:103FF0000302032A01D1012073E00546386820F04E
:1040000080600C463860FEF798F906463868000173
:1040100005D5FEF792F9801B0228F7D95EE0B86A51
:1040200095E80E0020F47C3040EA0130E968B8627F
:10403000A2F101004FF47E426FF35F2002EB4322B6
:104040004FF4FE0392B203EB014110442A694FF092
:10405000FE4301F4FE0103EB0262084402F0FE415C
:104060000844B863F86A696920F0C00040EA0100BA
:10407000F862F86AA96920F0200040EA01004FF6D2
:10408000F871F862F86A20F01000F862F86B20EA24
:104090000100E96940EAC100F863F86A40F01000E5
:1040A000F8622CB1012CF86A06D140F4801005E0CA
:1040B000F86A40F4002001E040F40010F86238682B
:1040C00040F080603860FEF738F904463868000137
:1040D00006D4FEF732F9001B0328F7D3032000E0D3
:1040E000002001B0F0BD0000F0B581B044F20047FF
:1040F000C5F60207BA6A02F00302032A01D10120C1
:1041000073E00546386820F080500C463860FEF7B2
:1041100014F906463868800005D5FEF70EF9801BB5
:104120000228F7D95EE0B86A95E80E0020F07C70AE
:1041300040EA0150E968B862A2F101004FF47E4202
:104140006FF35F2002EB43224FF4FE0392B203EBC6
:10415000014110442A694FF0FE4301F4FE0103EBD4
:104160000262084402F0FE4108443864F86A696952
:1041700020F4406040EA0100F862F86AA96920F47E
:10418000007040EA01004FF6F871F862F86A20F416
:104190008070F862786C20EA0100E96940EAC100A9
:1041A0007864F86A40F48070F8622CB1012CF86AE7
:1041B00006D140F4000005E0F86A40F4800001E018
:1041C00040F08070F862386840F080503860FEF748
:1041D000B4F804463868800006D4FEF7AEF8001B39
:1041E0000328F7D3032000E0002001B0F0BD7047A2
:1041F000FEF7A9B870B5CCB044F6180439A84C2124
:10420000C5F60204FCF79CF831A82021FCF798F8C9
:1042100002A8BC21FCF794F80220FEF757F9002011
:104220000190206840F440402060206800F4404045
:10423000019040F22C40C5F60000016841F00101F8
:104240000160006800F0010001900198206880047E
:10425000FCD501244FF48030399405213A90022096
:10426000CDE942004491C021CDE94510CDE9470098
:104270000825002639A84995CDE94A66FFF7B8F820
:104280003F204FF4806131900320CDE93206402079
:104290003495CDE93500CDE9371031A80421FEF77A
:1042A000B3FE02A802942096FEF76CFA4CB070BDE3
:1042B0004EF6085C4EF67F50CEF2000CCEF6F6209D
:1042C000DCF8801041F47001CCF8801044F2004119
:1042D000C5F602010A6842F001020A6000220A6182
:1042E0000B68184008608A61CA610A628A62CA6201
:1042F0000A634A638A63CA630A644A64086820F4EA
:104300008020086041F200000A66C5F6004000689F
:10431000B2EB507F05D148F208100121C5F2001020
:1043200001604FF00060CCF80000704780B5416E2E
:10433000E1B1016844F68C7C8A68C0F6000CC2F3D7
:1043400042628968490F44F6947E1CF80130C0F639
:10435000000E1EF80110DB00B3FBF1F11CF8023077
:104360001EF80220DB00B3FBF2F201E00121012282
:10437000A0F86A10A0F8682080BD816ACA0708D03A
:104380000268D0F82CC0536823F4003343EA0C03CE
:1043900053608A0708D50268D0F830C0536823F408
:1043A000803343EA0C0353604A0708D50268D0F80B
:1043B00034C0536823F4802343EA0C0353600A0794
:1043C00008D50268D0F838C0536823F4004343EAA4
:1043D0000C035360CA0608D50268D0F83CC0936845
:1043E00023F4805343EA0C0393608A0608D50268DD
:1043F000D0F840C0936823F4005343EA0C03936061
:104400004A0612D50268D0F844C05368BCF5801F34
:1044100023F4801343EA0C03536006D1536823F45A
:10442000C00C836C43EA0C035360090658BF704705
:104430000168C06C4A6822F400221043486070474B
:10444000B0B582B000210446C0F88810FDF775FFB2
:10445000216805460A6812070BD56FF07E404FF4BD
:1044600000110022009020462B4600F073FC70B92A
:104470002168086840070CD56FF07E404FF480013A
:104480000022009020462B4600F064FC08B1032077
:1044900007E02020C4F88000C4F88400002084F8DD
:1044A0007C0002B0B0BD806B0021A0F85E10A0F8C7
:1044B0005610FFF7C6BA806B0168D0F88020212A19
:1044C000D0F884208B6810D113F080030DD0002326
:1044D000A0F856300B6823F0C0030B608B6823F400
:1044E00000038B602023C0F88030222A8A6816D10E
:1044F00012F0400213D04FF0000C4FF6FE72A0F8FD
:104500005EC0CEF6FF720B6823F490730B608B686D
:104510001A408A602021C0F88410C0F86CC0D0F81E
:10452000881041F01001C0F88810FFF78ABAC169FD
:10453000806BB1F5807F12D00021A0F85E10016879
:104540000A6822F480720A608A6822F001028A6096
:104550008A6822F040028A602021C0F88410FFF7A8
:1045600068BC806BFFF766BCC169806BB1F5807F6A
:1045700001D1FFF7AABC0021A0F85610006881689D
:1045800021F080018160016841F0400101607047C5
:10459000806BFFF79BBC00002DE9F04186B004461C
:1045A0000068A1682269114362691143E26946F615
:1045B000F315E3681143676E0668CCF6FF7539435F
:1045C00006EA050739434FF2FF460160C1F2FF16C4
:1045D000416847F2FF7521F4405144F20048194305
:1045E00040F600434160C5F60003A16998421CBF34
:1045F000276A3943C4F200058768C5F602083740C8
:10460000A84241EA07018160C16A21F00F06616A90
:1046100046EA0106C6624FF0800626DD40F6FF75C9
:10462000C4F20105A84241DD984200F0758041F2D4
:104630000045C4F20105A84200F07A8041F200056D
:10464000C4F20105A84240F0AE80D8F85460C6F329
:10465000C205052D00F29E800126DFE815F0A400BA
:1046600099009D009F00A100A30044F6FF35C4F20D
:104670000005A84235DC44F20045C4F20005A8421A
:1046800000F0628044F60005C4F20005A84240F044
:104690008A80D8F8547007F00705052D00F27A805B
:1046A0000026DFE805F08075797B7D7F47F6000501
:1046B000C4F20005A84200F0538047F60045C4F25A
:1046C0000005A84240F06F80D8F8547007F0070545
:1046D000052D00F25F800026DFE805F0655A5E6078
:1046E000626444F60045C4F20005A84200F044802C
:1046F00045F20005C4F20005A84240F05480D8F805
:10470000547007F00705052D00F244800026DFE80D
:1047100005F04A3F43454749D8F8587007F0070568
:10472000052D37D80226DFE805F03E3337393B3D0B
:10473000D8F85470C7F3C205052D2BD80126DFE841
:1047400005F032272B2D2F31D8F8547007F00705CC
:10475000052D1FD80026DFE805F0261B1F21232585
:10476000D8F8547007F00705052D13D80026DFE8A8
:1047700005F01A0F13151719D8F8547007F007052C
:10478000052D07D80026DFE805F00E0307090B0DFD
:10479000042608E0802606E0082604E0102602E051
:1047A000202600E04026984217D0B2F5004F27D1CE
:1047B0000F2E4FF0010055DC082E00F2C182DFE819
:1047C00016F00900BF00BF02BF02C300BF02BF0254
:1047D000BF02C900FEF761FDB4E00F2E4FF00100EB
:1047E00023DC022E00F07880042E00F07980082E61
:1047F00040F0A6826846FDF733FF616A019874E0D5
:104800000F2E4FF001004ADC082E00F29982DFE8FB
:1048100016F00900AF0097029702B30097029702C3
:104820009702B900FEF739FDA4E0102E00F0718068
:10483000202E00F07C80402E40F082820A294FF02A
:10484000010000F26C81DFE811F080010B006F01C4
:10485000710173017501770179017B017D017F0190
:10486000022072E1102E00F09B80202E00F0A68026
:10487000402E40F065820A294FF0010000F2F481D9
:10488000DFE811F008020B00F701F901FB01FD015F
:10489000FF0101020302050207020220FAE1102EC5
:1048A00000F09580202E00F0A080402E40F048823D
:1048B0000A294FF0010000F2F581DFE811F009024A
:1048C0000B00F801FA01FC01FE01000202020402E1
:1048D000060208020220FBE1FDF71CFE616A04E00B
:1048E00003A8FDF72BFE616A04980B2906D244F653
:1048F0005072C0F6000252F8212004E04FF001028D
:1049000008BF4FF48072B0FBF2F3002B40F021811E
:10491000ECE1D8F80000800670D40B2980F0C98043
:1049200044F65070C0F6000050F82100C6E00B2994
:1049300077D244F65070C0F6000050F8210075E0C0
:10494000FEF7BEFC616A0AE003A8FDF7F7FD616AA5
:10495000049804E06846FDF783FE616A01980B291C
:1049600076D244F65072C0F6000252F8211074E07C
:10497000FEF7A6FC616A0AE003A8FDF7DFFD616AA5
:10498000049804E06846FDF76BFE616A01980B2904
:104990007DD244F65072C0F6000252F821107BE03E
:1049A000D8F80000800646D40B2980F0948044F6A5
:1049B0005070C0F6000050F8210091E00B294FD252
:1049C00044F65070C0F6000050F821004DE0D8F8D1
:1049D000000080064ED40B2980F0978044F650707A
:1049E000C0F6000050F8210094E00B2957D244F69D
:1049F0005070C0F6000050F8210055E0D8F80000D3
:104A000049F20002C0F3C100C0F2D0320B2922FAF1
:104A100000F058D244F65072C0F6000252F821203D
:104A200056E04FF0010008BF4FF4807040F60012CE
:104A3000C0F23D028BE0D8F8000049F20002C0F35A
:104A4000C100C0F2D0320B2922FA00F0FFF489AF86
:104A50004FF0010108BF4FF48071B0FBF1F145E068
:104A60004FF0010008BF4FF4807040F60011C0F213
:104A70003D0139E0D8F8000049F20002C0F3C1005E
:104A8000C0F2D0320B2922FA00F0FFF482AF4FF0CF
:104A9000010108BF4FF48071B0FBF1F01CE14FF051
:104AA000010008BF4FF4807040F60011C0F23D01D4
:104AB00010E14FF0010008BF4FF4807049F200028E
:104AC000C0F2D03243E04FF0010208BF4FF48072D1
:104AD000B0FBF2F33DE04FF0010008BF4FF48070EF
:104AE00049F20001C0F2D031B1FBF0F16068490039
:104AF00042081144B1FBF0F04FF6F071014000F0B4
:104B00001E81C0F342000843EEE04FF0010008BFF1
:104B10004FF4807049F20001C0F2D031DAE00B2985
:104B200008BF4FF4807010E004200EE006200CE077
:104B300008200AE00A2008E00C2006E0102004E02B
:104B4000202002E0402000E080204FF40042B2FB31
:104B5000F0F3626802EB420083424FF00100C0F0C4
:104B6000EF801703BB4200F2EB800F2E4FF00100E5
:104B70000CDC022E20D0042E22D0082E40F0E08043
:104B80006846FDF76DFD616A01981EE0102E2ED07B
:104B9000202E3CD0402E40F0D3800A294FF0010057
:104BA00000F2A680DFE801F0BA06A9ABADAFB1B361
:104BB000B5B7B9000220B1E0FDF7ACFC616A04E0D2
:104BC00003A8FDF7BBFC616A04980B2906D244F6E2
:104BD0005072C0F6000252F8211004E04FF00101BB
:104BE00008BF4FF48071B0FBF1F0626828E0D8F89C
:104BF0000000800649F20000C0F2D03010D40B292A
:104C000016D34FF0010108BF4FF4807116E00B2955
:104C100020D244F65070C0F6000050F821001EE08B
:104C2000D8F800300B29C3F3C10320FA03F0E8D20F
:104C300044F65073C0F6000353F82110B0FBF1F0B6
:104C40000102030E11EB520043F100010023FBF7B8
:104C50003FFB6CE04FF0010008BF4FF4807040F65E
:104C60000011C0F23D015BE00B2908BF4FF48070DA
:104C700010E004200EE006200CE008200AE00A20E4
:104C800008E00C2006E0102004E0202002E0402094
:104C900000E080204FF40041B1FBF0F160684A0071
:104CA000410826E70B2908BF4FF4807010E004206C
:104CB0000EE006200CE008200AE00A2008E00C20A4
:104CC00006E0102004E0202002E0402000E08020E8
:104CD0004FF40041B1FBF0F0616800EB5100B0FB14
:104CE000F1F080B210282AD32168C860002027E0A4
:104CF0000B2908BF4FF4807010E004200EE006205E
:104D00000CE008200AE00A2008E00C2006E0102051
:104D100004E0202002E0402000E080204FF4004129
:104D2000B1FBF0F0000200EB5200B0FBF2F04FF6E6
:104D3000FF42A0F54071C0F20F029142D4D9012088
:104D40004FF001110022C4E91A12226706B0BDE833
:104D5000F08100002DE9F04704688046E0690840D2
:104D6000401AB0FA80F04009904222D1DDF820903C
:104D70000D4616469A4609F1010700BF8FB1FDF7AF
:104D8000DCFAD8F80040B9F1000F216814D0A0EB8C
:104D90000A00484510D8480744BFE0695FEA005060
:104DA00017D4E0692840401BB0FA80F04009B042B7
:104DB000E4D00020BDE8F08721F4D0702060A06826
:104DC00020F00100A0602020C8F88000C8F884000E
:104DD00011E04FF400602062206820F4D070206061
:104DE000A06820F00100A0602020C8F88000C8F86A
:104DF0008400C8F88800002088F87C000320BDE803
:104E0000F08710B540F20854C2F20044204600F08A
:104E100006F82046BDE81040FEF714BEFEE7B0B528
:104E20000068C069C00658BFB0BD40F208541021E8
:104E3000C2F20044206801622046FEF7ADFDA06F7B
:104E400040F200050068C2F200454068291DC0F527
:104E500080604FF4806268802046FEF79BFF2878D0
:104E600040F001002870B0BD4EF614500021BFF391
:104E70004F8FCEF2000043F6E07CBFF36F8FC0F897
:104E80003C12BFF34F8FBFF36F8F026842F40032C2
:104E90000260BFF34F8FBFF36F8F0167BFF34F8F78
:104EA000C26EC2F34E31C2F3C90202F1010E940781
:104EB0000CEA41152346724643EA0506013A03F11E
:104EC0004043C0F84C62F7D10029A1F10101EFD1B4
:104ED000BFF34F8F016841F480310160BFF34F8F02
:104EE000BFF36F8FFDF73CFAFFF784F9FFF713F874
:104EF000FEF7EFFFFFF731F840F2085440F20005EB
:104F0000C2F20044C2F200452068016841F010017D
:104F1000016000BF2878C107FCD000F0FE002946E0
:104F200001F8040B4FF480622046FEF784FFF1E79E
:104F300002E008C8121F08C1002AFAD17047704762
:104F4000002001E001C1121F002AFBD170470000C0
:104F50000100000002000000040000000600000044
:104F6000080000000A0000000C0000001000000013
:104F70002000000040000000800000000000000051
:104F800001020304010203040607080901010103E9
:104F9000070100000804020408010101C04F0008D5
:104FA0000000002418040000B8030008D84F0008CF
:104FB0001804002480050000404F00080000000095
:104FC00001FF01FF01FF01FFE14990D0030090D0F4
:084FD000030182100000000043
:040000050800029954
:00000001FF
